S01600002E2F44656275672F5254532D4C61622E73313936
S3152000000000BFDFF814D009F088F803F0F5FD09F0F9
S3152000001096B8FEE700BF000000C0012080B483B080
S3152000002000AF0346FB71FB7903F01F03012202FA9E
S3152000003003F1064A97F907305B0942F8231000BFFF
S315200000400C37BD465DF8047B704700BF00E100E039
S3152000005080B483B000AF03463960FB7197F907304F
S31520000060002B0BDA3B68DAB20C49FB7903F00F035D
S31520000070043B1201D2B20B441A7609E03B68DAB28D
S31520000080074997F907301201D2B20B4483F80023AF
S3152000009000BF0C37BD465DF8047B704700ED00E0DD
S315200000A000E100E080B586B000AF786039607B68FB
S315200000B000229A617B689A697B685A617B685A69D3
S315200000C07B68DA6107F10C03184604F075F8002303
S315200000D0BB740023FB7400233B7501237B751C48EE
S315200000E000F012FA0023BB750023FB750023BB73B7
S315200000F00023FB7302233B7403237B740723BB81FA
S3152000010007F10C031946134803F0C2FE0346002BE1
S3152000011002D1114800F0F8F907F10C0319460F48EF
S3152000012003F0B6FE0346002B02D10D4800F0ECF991
S3152000013002211420FFF78CFF1420FFF76FFF012206
S315200001400221044804F076FC00BF1837BD4680BD66
S31520000150A09D002000640040C49D0020006800404F
S31520000160DC9D0020B0B58AB002AF786039607B682C
S315200001709B685A49184604F07BFC0346012B02D0A3
S31520000180574800F0C1F97B68DB69072B00F39F8095
S315200001907B689B6807F108020021184604F050FA94
S315200001A0BB681B09DBB27A68526903F07F03D8B2B9
S315200001B0796813469B0013445B0013440B44203399
S315200001C002461A70BB68DBB27A68526903F00F03E5
S315200001D0D8B2796813469B0013445B0013440B4442
S315200001E0213302461A70BB7C7A68526903F00F03EA
S315200001F0D8B2796813469B0013445B0013440B4422
S31520000200223302461A700023FB7716E0FB7F7A68BA
S315200002105269F97F07F12000034413F80D4C7868E2
S3152000022013469B0013445B00134403440B442333BF
S3152000023022461A70FB7F0133FB777B685A697968FF
S3152000024013469B0013445B0013440B4422331B7854
S31520000250FA7F9A42DAD37B68DB68002B25D07B684D
S31520000260DC687B681D697B685A69796813469B0040
S3152000027013445B0013440B4420331B7819017B681D
S315200002805A69786813469B0013445B001344034461
S3152000029021331B780B4400932B4622460021002055
S315200002A000F06EFD0F4B01221A607B685B690133FB
S315200002B05A4203F0070302F0070258BF53427A68F6
S315200002C053617B68DB695A1C7B68DA6102E0064869
S315200002D000F01AF900BF2037BD46B0BD030000125A
S315200002E0F49D0020CCB000201C9E002090B484B049
S315200002F000AF786039607B68DB69002B55DD7B6851
S315200003009A69796813469B0013445B0013440B4497
S3152000031020331A783B681A707B689A697968134685
S315200003209B0013445B0013440B4421331A783B682B
S315200003305A707B689A69796813469B0013445B0060
S3152000034013440B4422331A783B689A700023FB73BC
S3152000035013E07B689A69F87BF97B7C6813469B00DF
S3152000036013445B0013442344034423331A783B6825
S315200003700B44DA70FB7B0133FB733B689B78FA7B7B
S315200003809A42E6D37B689B6901335A4203F00703FE
S3152000039002F0070258BF53427A6893617B68DB6993
S315200003A05A1E7B68DA61002300E0012318461037C5
S315200003B0BD4690BC704780B58AB000AF7860396082
S315200003C07B689B683B620023FB773B681B781B019D
S315200003D03A6852781344BB6000237B7400233B7435
S315200003E03B689B78082B02D93B6808229A703B68A9
S315200003F09B78BB74002387F8273010E097F82720D6
S3152000040097F8273039680A44D27807F128010B4437
S3152000041003F8152C97F82730013387F827303B68E7
S315200004209B7897F827209A42E8D307F108031946C4
S31520000430386A03F085FF0346FB77FB7F042B04D144
S315200004400E4800F061F8012313E000BFFB7F194638
S31520000450386A04F046F80346022BF7D0FB7F19468C
S31520000460386A04F03EF80346002B01D1012300E050
S31520000470002318462837BD4680BD00BF3C9E00207D
S3152000048080B483B000AF0346FB71FB7903F01F03F2
S31520000490012202FA03F1064A97F907305B0942F86E
S315200004A0231000BF0C37BD465DF8047B704700BFA4
S315200004B000E100E080B483B000AF03463960FB71F1
S315200004C097F90730002B0BDA3B68DAB20C49FB7937
S315200004D003F00F03043B1201D2B20B441A7609E053
S315200004E03B68DAB2074997F907301201D2B20B44BA
S315200004F083F8002300BF0C37BD465DF8047B7047A8
S3152000050000ED00E000E100E080B582B000AF786049
S315200005100EE07B681B780D2B07D07B685A1C7A600F
S315200005201B78184600F060F902E07B6801337B6097
S315200005307B681B78002BECD100BF00BF0837BD4677
S3152000054080BD80B586B000AF786000237B617B6874
S3152000055003F00F027B69591C796110498A5C07F107
S3152000056018010B4403F80C2C7B681B097B607B6805
S31520000570002BECD10AE07B69013B7B6107F10C0281
S315200005807B6913441B78184600F02EF97B69002BF3
S31520000590F1D100BF00BF1837BD4680BD84AA002018
S315200005A080B59EB000AF78607B68002B02DA4FF0F2
S315200005B0FF3300E001233B677B683A6F02FB03F3BE
S315200005C07B6000237B6779681C4B83FB01239A1091
S315200005D0CB17D21A13469B0013445B00CA1A7B6FB3
S315200005E0591C796716498A5C07F178010B4403F890
S315200005F06C2C7B68114A82FB03129210DB17D31AEC
S315200006007B607B68002BDED13B6F002B0EDA2D2022
S3152000061000F0EAF80AE07B6F013B7B6707F10C02EA
S315200006207B6F13441B78184600F0DEF87B6F002B97
S31520000630F1D100BF00BF7837BD4680BD67666666CC
S3152000064084AA002080B483B000AF10237B607B682F
S3152000065083F3118800BF00BF0C37BD465DF8047BCD
S31520000660704780B483B000AF30237B607B6883F310
S31520000670118800BF00BF0C37BD465DF8047B70476C
S3152000068080B584B000AF78600B48FFF73DFF0B4B79
S315200006901B68002B02D1094B094A1A60074B1B68BD
S315200006A0FB60064B1A687B681344044A1360FB6898
S315200006B018461037BD4680BD509E002058B40020F5
S315200006C07034012080B485B000AF786039603B6813
S315200006D003F5F95310337A6813607B681B68BB6097
S315200006E00023FB600AE0FB689B001A46BB681344A4
S315200006F01A4600231360FB680133FB60FB68332B2B
S31520000700F1DDBB686FF016021A60BB6804331A4627
S3152000071003231360BB6884331A464FF0807313603B
S3152000072000BF1437BD465DF8047B704780B485B0A2
S3152000073000AF786039607B681B688033FB60FB689C
S315200007403A681A6000BF1437BD465DF8047B7047CF
S3152000075080B584B000AF1D4806F0F4FB3B1D18465B
S3152000076006F03CFD40F24733BB803B1D1946174837
S3152000077006F0C8FC164B174A1A6002216FF00100DA
S31520000780FFF798FE144B154A1A6000216FF00400FB
S31520000790FFF790FE124B134A1A6002213220FFF710
S315200007A089FE3220FFF76CFE0021084806F060FD26
S315200007B00121064806F029FE01220221034807F0FE
S315200007C0F8FD00BF1037BD4680BD00BF000C0040BD
S315200007D038C00120D91300202CC00120D5130020B9
S315200007E008C101206F0B002080B582B000AF034600
S315200007F0FB71FB799BB21946074805F0B6FA00BF94
S315200008008021054805F0A0FC0346002BF8D000BF48
S3152000081000BF0837BD4680BD0010014080B500AF3F
S31520000820124806F041FD03461A46114B1A60114B39
S3152000083001221A60104B00221A60104B1B68002BF5
S3152000084006D00E4B1B680E4A1268002110469847A8
S31520000850084B00221A60084B1B68002B01D000F0C1
S315200008605DFA054B00221A6000BF80BD000C0040D7
S31520000870D0B00020C8B00020CCB0002068B1002045
S3152000088008B1002080B500AF124806F00DFD0346E2
S315200008901A46114B1A60114B01221A60104B002286
S315200008A01A60104B5B68002B06D00E4B5B680E4A15
S315200008B05268012110469847084B00221A60084BBF
S315200008C01B68002B01D000F029FA054B00221A6084
S315200008D000BF80BD000C0040D0B00020C8B0002072
S315200008E0CCB0002068B1002008B1002080B500AF50
S315200008F0124806F0D9FC03461A46114B1A60114BD2
S3152000090001221A60104B00221A60104B9B68002BA4
S3152000091006D00E4B9B680E4A9268022110469847D5
S31520000920084B00221A60084B1B68002B01D000F0F0
S31520000930F5F9054B00221A6000BF80BD000C00406F
S31520000940D0B00020C8B00020CCB0002068B1002074
S3152000095008B1002080B485B000AF786039600023EC
S31520000960FB603B681B68BB6004E0BB68FB60BB6840
S315200009701B68BB60BB68002B05D0BB689A687B6888
S315200009809B689A42F1DD7B68BA681A60FB68002B87
S3152000099003D13B687A681A6002E0FB687A681A60BD
S315200009A000BF1437BD465DF8047B704780B485B020
S315200009B000AF786039600023FB603B681B68BB6032
S315200009C004E0BB68FB60BB681B68BB60BB68002B90
S315200009D005D0BB685A687B685B689A42F1DD7B6804
S315200009E0BA681A60FB68002B03D13B687A681A60E4
S315200009F002E0FB687A681A6000BF1437BD465DF8CE
S31520000A00047B704780B584B000AF78607B681B6834
S31520000A10FB60FB68002B04D0FB681A687B681A60B1
S31520000A200CE00948FFF770FD00220221074804F078
S31520000A30F6FE0748FFF768FD30BFFDE7FB6818465E
S31520000A401037BD4680BD00BF689E002000040240CE
S31520000A50749E002080B584B000AF78607B681B68E8
S31520000A60FB60FB68002B04D0FB681A687B681A6061
S31520000A700CE00948FFF748FD00220221074804F050
S31520000A80CEFE0748FFF740FD30BFFDE7FB6818465E
S31520000A901037BD4680BD00BF689E0020000402407E
S31520000AA0809E002080B483B000AF786039603B68B8
S31520000AB01A687B681A603B687A681A6000BF0C3730
S31520000AC0BD465DF8047B704780B483B000AF786084
S31520000AD039603B681A687B689A603B687A681A6056
S31520000AE000BF0C37BD465DF8047B704780B485B0E7
S31520000AF000AF78607B681B68FB60FB689A687B6840
S31520000B001A60FB6818461437BD465DF8047B7047AB
S31520000B1080B485B000AF786039600023FB603B6805
S31520000B201B68BB6004E0BB68FB60BB681B68BB60DE
S31520000B30BB68002B03D0BA687B689A42F3D1BB68A6
S31520000B40002B0DD0FB68002B04D0BB681A68FB680D
S31520000B501A6003E0BB681A683B681A60012300E04C
S31520000B60002318461437BD465DF8047B704780B5D0
S31520000B7082B000AF02211E4807F0A5FC1C4806F0F3
S31520000B8093FB03467B6007E01A48FFF73BFF0346CB
S31520000B9019491846FFF7DEFE164B1B68002B06D0B8
S31520000BA0144B1B685A687B68D31A002BECDD114B5B
S31520000BB01B68002B16D00E4806F076FB03463B60DA
S31520000BC00C4B1B685B683A689A4204DD00220221BE
S31520000BD00A4804F024FE074B1B685B681946044844
S31520000BE006F0A1FE00F09AF800BF0837BD4680BD8A
S31520000BF0000C0040C4B00020C0B000200004024019
S31520000C000346024A136010DFF74600BF14B10020E6
S31520000C100346054A1360054B5B68044A43F080533C
S31520000C205360F74600BF00BF14B1002000ED00E07E
S31520000C3080B582B000AF7860094B5B68C3F30803C8
S31520000C40002B03D17868FFF7DBFF02E07868FFF717
S31520000C50DFFFFFF706FD00BF0837BD4680BD00BF9A
S31520000C6000ED00E090B585B000AF234B1C6823480B
S31520000C70FFF7C8FE0346E360E368BB60FFF7F1FCBD
S31520000C80BB68D868BB681969BB685B691A4600F0FF
S31520000C9015F9FFF7D7FC1A49B868FFF703FF194B78
S31520000CA01B689B68DB687B60144B1B68002B0AD093
S31520000CB07B68002BD9D0114B1B689A687B689B6890
S31520000CC0D31A002BD1DD0F48FFF710FF03460E493C
S31520000CD01846FFF7F9FE0B4B1B68FB6003E0FB6829
S31520000CE01B691B68FB60FB681B69002BF7D1F86842
S31520000CF0FFF79EFFB9E700BFA4AA0020C0B00020DE
S31520000D0098AA0020A0AA00209CAA002080B500AFA7
S31520000D1000F004F8FFF7A5FC30BFFBE780B582B0F2
S31520000D2000AF144B1B68DB687B60134B1B68002BE2
S31520000D301BD0124B1B68002B17D07B68002B07D0CB
S31520000D400D4B1B689A687B689B68D31A002B0CDABC
S31520000D500A48FFF7CBFE034606491846FFF7B4FEBE
S31520000D60044B1B681846FFF763FF00BF0837BD46D4
S31520000D7080BD00BFA0AA0020C0B000209CAA0020F1
S31520000D8080B588B000AFF860B9607A603B60EFF359
S31520000D9012833B613B691B09012B14BF01230023EE
S31520000DA0DBB2FB77FFF74EFC3A48FFF753FEB861FC
S31520000DB0BB697A68DA60BB693A681A61BB69BA6A44
S31520000DC05A61354B1B68002B04D1344B1B68DB68FA
S31520000DD05B6801E0324B1B68FA681A44BB695A60AB
S31520000DE0BB695A68BB68002B01DDBB6801E06FF068
S31520000DF000431A44BB699A602A4806F055FA03460E
S31520000E007B61BB695A687B69D31A002B16DD26499C
S31520000E10B869FFF7CBFD244B1B685B687A699A4259
S31520000E2004DD00220221214804F0F9FC1E4B1B6838
S31520000E305B6819461B4806F076FD21E01C49B86917
S31520000E40FFF788FDFB7F002B1AD01A4B1B68002B5F
S31520000E5016D0174B1B689A68174B1B68DB689B6874
S31520000E60D31A002B0CDA1348FFF740FE034612492B
S31520000E701846FFF729FE104B1B681846FFF7D8FEC9
S31520000E80FB7F002B01D0FFF7ECFBBB691846203710
S31520000E90BD4680BD98AA0020C8B00020A4AA002084
S31520000EA0D0B00020000C0040C4B000200004024056
S31520000EB0C0B000209CAA0020A0AA002080B588B03F
S31520000EC000AFF860B9607A60EFF312833B613B694B
S31520000ED01B09012B14BF01230023DBB2FB76FFF78E
S31520000EE0B1FBFB681B68FB61FB69002B37D003E075
S31520000EF0FB691B691B68FB61FB691B69002BF7D12A
S31520000F00304B1B68FA699A4202D0FB7E002B07D130
S31520000F10FB7E002B01D0FFF7A4FB4FF0FF334DE003
S31520000F20FB685B68002B03D0FB685B6800221A61B4
S31520000F30244B1A68FB685A60224B1B68FA681A61B0
S31520000F40F869FFF775FE1F4B1B68DB68002B06D17F
S31520000F50FB7E002B01D0FFF784FB00232EE0194BEC
S31520000F601A68FB681A60FB7E002B05D0FB685B685D
S31520000F70012B01D0FFF775FBBB687968F8689847A5
S31520000F807861FFF75FFBFB6800221A60FB685B68ED
S31520000F90FB61FB69002B0BD0FB69012B08D0FB689A
S31520000FA000225A60FB6900221A61F869FFF740FEA9
S31520000FB0FB7E002B01D0FFF754FB7B6918462037B8
S31520000FC0BD4680BDA4AA002080B586B000AF78605B
S31520000FD0EFF31283FB60FB681B09012B14BF01236F
S31520000FE00023DBB2FB74FFF72DFB1F497868FFF760
S31520000FF08FFD0346002B06D11C497868FFF788FD34
S315200010000346002B04D01A497868FFF74BFD21E0F0
S31520001010184B1B687B611AE0174B1B687A699A424A
S3152000102012D07B69DB687A689A420DD17B691A698E
S315200010307B68DB689A4207D17B690022DA600C491B
S315200010407868FFF72FFD05E07B699B687B617B69EC
S31520001050002BE1D1FB7C002B01D0FFF702FB00BF68
S315200010601837BD4680BD00BFC4B00020C0B00020E8
S3152000107098AA0020A0AA0020A4AA002080B485B0A7
S3152000108000AF7860EFF31283FB60FB681B09012B2E
S3152000109004D0074B1B68DB685B6801E0054B1B68C7
S315200010A07A68136000BF1437BD465DF8047B70472D
S315200010B0A4AA0020D0B0002080B485B000AF78600C
S315200010C0EFF31283FB60FB681B09012B04D0084B4E
S315200010D01B68DB685B6801E0064B1B687A68126850
S315200010E09B1A18461437BD465DF8047B704700BF2F
S315200010F0A4AA0020D0B0002080B584B000AFEFF3C2
S3152000110012837B607B681B09012B14BF01230023FC
S31520001110DBB2FB73FFF796FA0C4806F0C5F80346D8
S31520001120BB60FB7B002B01D0FFF79BFAFB7B002BE0
S3152000113004D0074B1B68DB685B6801E0054B1B6826
S31520001140BA68D31A18461037BD4680BD000C004039
S31520001150A4AA0020D0B0002080B582B000AF002322
S315200011607B6012E07B685A1C13465B001344DB004D
S31520001170444A991843487A6813465B001344DB00B7
S31520001180034419607B6801337B607B681C2BE9DD97
S315200011903C4B0022C3F8B82200237B6013E07B6817
S315200011A05A1C13469B0013449B00374A991836480D
S315200011B07A6813469B0013449B0003440833196046
S315200011C07B6801337B607B68022BE8DD2E4B002297
S315200011D05A6400237B6030E02B497A6813469B00D3
S315200011E013449B000B4404337A681A607A681346CA
S315200011F09B0013449B00244A1A447B685B032349C3
S315200012000B4419461046FFF75DFA7A6813469B0091
S3152000121013449B001C4A13441D491846FFF786FABF
S3152000122019497A6813469B0013449B000B441033DC
S3152000123000221A607B6801337B607B68032BCBDD41
S31520001240144B4FF0FF325A60124B00229A60114B1A
S3152000125000221A610F4B0022DA600F48FFF754F97B
S315200012600E48FFF751F90E48FFF74EF90A48FFF7E7
S315200012704BF90948FFF748F9FFF76AFA00BF083724
S31520001280BD4680BD88B1002018B1002060B4002082
S31520001290650C002074B100208C9E0020909E0020BA
S315200012A09C9E002080B586B000AFF860B9601346DA
S315200012B0FB71FB79022B41D8EFF312833B613B692B
S315200012C01B09012B14BF01230023DBB2FB75FFF79B
S315200012D0B9F9FB79022B0ED0022B10DC002B02D0A1
S315200012E0012B04D00BE0174B174A1A6014E0174B5A
S315200012F0174A1A6010E0174B174A1A600CE0174875
S31520001300FFF702F900220221154804F088FA154851
S31520001310FFF7FAF830BFFDE7FB791349FA6841F881
S315200013202320FB791149BA6841F82320FB68012262
S315200013305A60FB7D002B01D0FFF793F900BF1837C9
S31520001340BD4680BDD4C001201D08002090C00120CC
S31520001350850800209CC00120ED080020689E002002
S3152000136000040240B49E002008B1002068B100208D
S3152000137080B586B002AFF860B9607A60FFF762F98F
S31520001380FFF7EAFEBB68002B16D00F4805F08CFF4E
S3152000139003461A460D4B1A600D4B01221A607B68D4
S315200013A00093BB68FA6800210020FFF7E9FC084B90
S315200013B000221A60FFF7B2FCFFF7A8FC00231846AC
S315200013C01037BD4680BD00BF000C0040D0B00020C5
S315200013D0C8B00020314900E03149EFF3088020ED04
S315200013E0108A7246EFF3118320E9FC0F2D4FD7F8B0
S315200013F00080C8F800001EE00846FFF785F82A4856
S31520001400FFF782F82948FFF77FF8D8F80400FFF79E
S31520001410C7F82748FFF778F8D8F80000FFF791F8C3
S315200014202448FFF771F8D8F800000068FFF789F81C
S315200014301D48FFF769F8DFF88080D8F80080C7F8E4
S31520001440008018E01D48FFF75FF8D8F80400FFF782
S31520001450A7F81B48FFF758F8D8F80000FFF771F8EF
S315200014601448FFF751F8D8F800000068FFF769F82C
S315200014700D48FFF749F8134A536843F00063536059
S3152000148000BFD8F80000B0E8FC0F83F31188964619
S31520001490B0EC108A80F3088870470000A8AA0020C4
S315200014A0B9AA0020A4AA002029AB0020DAAA00208D
S315200014B0F2AA0020FAAA002014B1002003AB0020D3
S315200014C018AB002000ED00E080B483B000AF0346E7
S315200014D0FB71FB7903F01F03012202FA03F1064A8E
S315200014E097F907305B0942F8231000BF0C37BD4639
S315200014F05DF8047B704700BF00E100E080B483B054
S3152000150000AF03463960FB7197F90730002B0BDAE1
S315200015103B68DAB20C49FB7903F00F03043B120156
S31520001520D2B20B441A7609E03B68DAB2074997F93A
S3152000153007301201D2B20B4483F8002300BF0C37C8
S31520001540BD465DF8047B704700ED00E000E100E059
S3152000155080B582B000AF786039607B6800229A61DE
S315200015607B689A697B685A617B685A697B68DA610D
S31520001570012240F225510A4804F09EFD002240F245
S315200015802771074804F098FD02212520FFF7B6FFB2
S315200015902520FFF799FF00BF0837BD4680BD00BF55
S315200015A00010014080B483B000AF78600B46FB701A
S315200015B07B68DB69B3F5806F17DA7B685B697A68CD
S315200015C01344FA7883F820207B685B6901335A42FA
S315200015D0C3F30903C2F3090258BF53427A68536121
S315200015E07B68DB695A1C7B68DA6100BF0C37BD4615
S315200015F05DF8047B704780B582B000AF78603960B3
S315200016007B68DB69002B18D17B689B68012240F23E
S315200016102771184604F050FD0FE03B681B780A2B13
S3152000162003D10D217868FFF7BDFF3B685A1C3A604D
S315200016301B7819467868FFF7B5FF3B681B78002BA7
S31520001640EBD100BF00BF0837BD4680BD80B582B054
S3152000165000AF786039607B68DB69002B07D17B6837
S315200016609B68012240F22771184604F025FD3B684D
S31520001670DBB219467868FFF795FF00BF0837BD46ED
S3152000168080BD80B586B002AF786039607B689B6884
S315200016902021184604F058FD0346012B18D17B68FB
S315200016A09B68184604F073FB0346FB607B68DB6887
S315200016B0002B0DD07B68DA687B681969FB6800937C
S315200016C00B4600210020FFF75BFB234B01221A600B
S315200016D07B689B688021184604F036FD0346012B63
S315200016E035D17B68DB69002B29DD7B6898687B68B0
S315200016F09B697A68134493F820309BB2194604F00C
S3152000170034FB7B689B6901335A42C3F30903C2F356
S31520001710090258BF53427A6893617B68DB695A1E77
S315200017207B68DA617B68DB69002B10D17B689B685C
S31520001730002240F22771184604F0BEFC07E07B68C1
S315200017409B68002240F22771184604F0B5FC00235E
S3152000175018461037BD4680BDCCB0002080B584B079
S3152000176002AF786039607B685B7D002B0AD100234D
S315200017700093064B7A6800210020FFF701FB7B6867
S3152000178001225A7500BF0837BD4680BD1F1B0020A9
S31520001790F0B5A7B006AF786039607B6893F858300B
S315200017A0002B00F0B8817B689B7D19467A680B4632
S315200017B05B000B449B00134420331B78012B00F065
S315200017C0AA817B6893F85B307A6892F85020B3FB45
S315200017D0F2F102FB01F29B1A87F877307B6893F8C7
S315200017E059301A46BA4B93FBF2F33B677B689B7DD5
S315200017F019467A680B465B000B449B001344213341
S315200018001B7897F877209A4240F0AA807B681B7D48
S31520001810002B2BD07B689B7D1C467B689B7D1946C5
S315200018207A680B465B000B449B00134420331B78DD
S315200018301D467B6893F85B301A467B6893F85930CF
S3152000184019467B6893F85A3007F10C0002930191F0
S3152000185000922B4622469F4907F0F6FC7B68DB6800
S3152000186007F10C029C491846FFF728FB7B6893F882
S315200018705E30002B38D17B6818697B6893F85B3023
S315200018801A46964B53F822307A6892F85A20134417
S315200018900533934A52F823301A469249FFF70EFB36
S315200018A07B681A69002300938F4B1E210020FFF7C7
S315200018B067FA7B6893F85B301A468C4B53F82230D4
S315200018C01A463B6F03FB02F3A3F54343503B884A7A
S315200018D0A2FB0323DB0818467B681A6900230093C2
S315200018E0844B1E21FFF74CFA022387F864307B686D
S315200018F09B7D87F86530062387F866307B689B7D5D
S3152000190087F867307B6893F85B3087F868307B68A8
S3152000191093F8593087F869307B6893F85A3087F8FE
S315200019206A307B681B691B69DBB287F86B307B6882
S315200019301B7F87F86C30002387F86D30002387F8EB
S315200019406E307B6893F85E30002B40F09F807B687A
S315200019509B6807F1640268491846FFF7AFFA95E0DD
S315200019607B689B7D87F87F300023BB6712E0796810
S31520001970BA6F13465B0013449B000B4421331B783C
S3152000198097F877209A4202D1BB6F87F87F30BB6FDA
S315200019900133BB67BB6F032BE9DD7B681B7D002B07
S315200019A03AD07B689B7D1E467B689B7D19467A686C
S315200019B00B465B000B449B00134420331B789C464C
S315200019C07B6893F85B301C4697F87F1097F87F204A
S315200019D0786813465B0013449B00034420331B782E
S315200019E01A467B6893F859301D467B6893F85A301F
S315200019F007F10C000493039502920191009463462B
S31520001A0032463E4907F020FC7B68DB6807F10C0272
S31520001A1031491846FFF752FA022387F858307B6877
S31520001A209B7D87F85930062387F85A3097F87F3000
S31520001A3087F85B307B6893F85B3087F85C307B688F
S31520001A4093F8593087F85D307B6893F85A3087F8D9
S31520001A505E307B681B691B69DBB287F85F307B6869
S31520001A601B7F87F86030002387F86130002387F8D2
S31520001A7062307B6893F85E30002B07D17B689B68C9
S31520001A8007F158021C491846FFF718FA7B6893F8A5
S31520001A905B301A46154B53F822301A463B6F03FB30
S31520001AA002F3134AA2FB0323DB0818460023009304
S31520001AB0134B7A686421FFF763F97B6893F85B30F0
S31520001AC01E2B1FD97B68002283F85B2024E000BFF1
S31520001AD080C3C9013CA00020F7150020D49E002019
S31520001AE0D89F00204D8C0020FD8B0020549F002085
S31520001AF0CDCCCCCC318C0020B703002084A0002094
S31520001B00911700207B6893F85B300133DAB27B684B
S31520001B1083F85B2000E000BF8437BD46F0BDF0B5FA
S31520001B20A1B002AF786039607B689B695A1C7B68DC
S31520001B309A617B689A697B689B7D194610467A680C
S31520001B400B465B000B449B001344243318607B68D0
S31520001B509B7D19467A680B465B000B449B00134419
S31520001B60283300221A70002387F87730012387F85C
S31520001B70763000233B6773E079683A6F13465B0043
S31520001B8013449B000B4424331B6803337A68926901
S31520001B90934239D27B681B7D002B2AD079683A6F15
S31520001BA013465B0013449B000B4428331B78002B01
S31520001BB01FD17B689B7D1C467B689B7D19467A6876
S31520001BC00B465B000B449B00134420331B781A46BC
S31520001BD007F108003B6F009313462246664907F03B
S31520001BE033FB7B68DB6807F1080264491846FFF778
S31520001BF065F979683A6F13465B0013449B000B44E2
S31520001C00283301221A7028E079683A6F13465B0060
S31520001C1013449B000B44213397F877201A7097F8CA
S31520001C207730013387F8773079683A6F13465B004F
S31520001C3013449B000B4420331B78002B0AD0796871
S31520001C403A6F13465B0013449B000B4422331B78E8
S31520001C50012B02D1002387F876303B6F01333B6797
S31520001C603B6F032B88DD7B6897F8772083F850201D
S31520001C70012387F86F300023BB6616E07968BA6EB9
S31520001C8013465B0013449B000B4428331B78002B20
S31520001C9008D17B689B7D1A46BB6E934202D00023F7
S31520001CA087F86F30BB6E0133BB66BB6E032BE5DD59
S31520001CB07B6893F86030002B13D097F86F30002B99
S31520001CC00FD07B6893F85F30002B0AD17B68012206
S31520001CD083F85F207B68DB68294A28491846FFF786
S31520001CE0EDF897F87630002B50D07B689B7D19460F
S31520001CF07A680B465B000B449B00134421331B7808
S31520001D00002B43D197F86F30002B3FD17B689B7D0A
S31520001D1019467A680B465B000B449B00134420331C
S31520001D2000221A707B689B7D19467A680B465B00F9
S31520001D300B449B001344223300221A707B68002236
S31520001D405A657B681B7F0133DAB27B681A777B681A
S31520001D50DB680C4A09491846FFF7B0F87B6893F808
S31520001D605830002B5BD000230093074B7A68002164
S31520001D700020FFF705F852E0C8A00020F715002044
S31520001D80F0A0002008A10020911700207B689B7DF1
S31520001D9019467A680B465B000B449B00134422339A
S31520001DA01B78002B3BD07B685B6D5A1D7B689B693B
S31520001DB09A4234DA7B689B7D19467A680B465B002B
S31520001DC00B449B001344203300221A707B689B7DB2
S31520001DD019467A680B465B000B449B00134422335A
S31520001DE000221A707B6800225A657B681B7F0133AC
S31520001DF0DAB27B681A777B68DB684B4A4B49184610
S31520001E00FFF75CF87B6893F85830002B07D0002347
S31520001E100093474B7A6800210020FEF7B1FF7B68CC
S31520001E201B7D002B2DD07B689B7D1D467B689B7D73
S31520001E3019467A680B465B000B449B0013442033FB
S31520001E401B781E467B681B7F1C467B689B7D19463C
S31520001E507A680B465B000B449B00134422331B78A5
S31520001E6007F108000193009433462A46314907F0CA
S31520001E70EBF97B68DB6807F108022C491846FFF767
S31520001E801DF8012387F85C307B689B7D87F85D30E1
S31520001E90042387F85E307B689B7D19467A680B465B
S31520001EA05B000B449B00134420331B7887F85F307C
S31520001EB07B681B7F87F860307B689B7D19467A6834
S31520001EC00B465B000B449B00134422331B7887F898
S31520001ED06130002387F86230002387F863300023BF
S31520001EE087F86430002387F86530002387F866304A
S31520001EF07B6893F85E30002B07D17B689B6807F1DF
S31520001F005C020D491846FEF7D9FF002300930B4BC0
S31520001F107A684FF4FA7144F62060FEF731FF00BF6D
S31520001F207C37BD46F0BD00BF08A10020F715002074
S31520001F309117002020A10020B70300201F1B00209E
S31520001F40F0B5B3B008AFF860B960FB6893F85E30BF
S31520001F50002B40F0EA84FB6893F85F30002B2ED0EC
S31520001F60FB68002283F85F20FB68DB68A54AA64948
S31520001F701846FEF7A3FFFB689B7D1946FA680B46B9
S31520001F805B000B449B001344203301221A70FB682C
S31520001F90DB689E4A9C491846FEF790FFFB689B7DAE
S31520001FA01946FA680B465B000B449B00134420330A
S31520001FB01B78012B03D1FB68002283F85820BB68CD
S31520001FC01B78012B40F0F181FB6893F86030002BE1
S31520001FD00AD1FB68012283F86020FB68DB688C4A03
S31520001FE089491846FEF76AFFBB685B781946BB68C5
S31520001FF0D878FA680B465B000B449B0013442033C9
S3152000200002461A70FB689A69BB685B7819461046C7
S31520002010FA680B465B000B449B001344243318607C
S31520002020BB685B781946BB685879FA680B465B0033
S315200020300B449B001344223302461A70BB685B781C
S315200020401946FA680B465B000B449B001344283361
S315200020501B78002B30D0FB681B7D002B20D0FB6823
S315200020609B7D1C46FB689B7D1946FA680B465B00E8
S315200020700B449B00134420331B781A46BB685B78BD
S3152000208007F11400009313462246624907F0DCF854
S31520002090FB68DB6807F114025B491846FEF70EFF62
S315200020A0BB685B781946FA680B465B000B449B00BD
S315200020B01344283300221A70BB685B781946FA68E5
S315200020C00B465B000B449B00134422331B78002BEA
S315200020D050D0FB689B7D1946FA680B465B000B4483
S315200020E09B00134422331B78002B43D0BB685A78BD
S315200020F0FB689B7D9A423DD2FB689B7D1946FA6818
S315200021000B465B000B449B001344223300221A70BB
S31520002110FB681B7D002B2DD0FB689B7D1D46FB6835
S315200021209B7D1946FA680B465B000B449B001344C3
S3152000213020331B781E46BB685B781C46BB685B78E1
S315200021401946FA680B465B000B449B001344203368
S315200021501B7807F114000193009433462A462E4932
S3152000216007F072F8FB68DB6807F114022649184667
S31520002170FEF7A4FEBB681A79FB681B7F9A4240F2E1
S315200021809380FB6893F85E30002B40F0D083FB6889
S315200021909B7D1946FA680B465B000B449B00134453
S315200021A020331B78002B42D1FB689B7D1946FA68A9
S315200021B00B465B000B449B001344203301221A700C
S315200021C0FB681B7D002B2BD0FB689B7D1C46FB6888
S315200021D09B7D1946FA680B465B000B449B00134413
S315200021E020331B7807F1140022460C4907F02CF8FF
S315200021F0FB68DB6807F1140203491846FEF75EFE0A
S3152000220015E000BF54A10020F71500206CA1002086
S3152000221088A100209CA10020C8A100200CA200209B
S31520002220FB68DB68844A85491846FEF747FEFB684B
S315200022309B7D1946FA680B465B000B449B001344B2
S3152000224022331B78012B2BD1FB689B7D1946FA681C
S315200022500B465B000B449B001344223300221A706A
S31520002260FB681B7D002B1BD0FB689B7D1C46FB68F7
S315200022709B7D1946FA680B465B000B449B00134472
S3152000228020331B7807F1140022466D4906F0DCFF47
S31520002290FB68DB6807F1140268491846FEF70EFE54
S315200022A0BB681A79FB681A77002387F8A7300023C2
S315200022B0C7F8A03034E0F968D7F8A02013465B00B1
S315200022C013449B000B4428331B78012B23D0F96839
S315200022D0D7F8A02013465B0013449B000B44213300
S315200022E097F8A7201A70FB689B7D1A46D7F8A0306E
S315200022F093420BD1F968D7F8A02013465B0013440C
S315200023009B000B44213397F8A7201A7097F8A73023
S31520002310013387F8A730D7F8A0300133C7F8A030AB
S31520002320D7F8A030032BC6DDFB6897F8A72083F8E3
S315200023305020FB681B7D002B00F0FA82FB689B7DFA
S315200023401D46FB689B7D1946FA680B465B000B44CD
S315200023509B00134420331B781E46BB685B781C46C3
S31520002360BB685B781946FA680B465B000B449B00FA
S31520002370134420331B781A46BB681B791946BB6861
S315200023805B7907F11400039302910192009433467E
S315200023902A462C4906F058FFFB68DB6807F1140231
S315200023A026491846FEF78AFDC2E2BB681B78022B37
S315200023B040F0AC81BB681A7AFB681B7F9A4240F2D8
S315200023C08980FB689B7D1946FA680B465B000B44A7
S315200023D09B00134420331B78002B3ED1FB689B7D4A
S315200023E01946FA680B465B000B449B0013442033C6
S315200023F001221A70FB681B7D002B27D0FB689B7D72
S315200024001C46FB689B7D1946FA680B465B000B440D
S315200024109B00134420331B7807F1140022460A49F7
S3152000242006F012FFFB68DB6807F114020349184621
S31520002430FEF744FD11E000BF40A20020F715002062
S3152000244058A2002088A20020D4A20020FB68DB68C6
S31520002450A14AA2491846FEF731FDFB689B7D194625
S31520002460FA680B465B000B449B00134422331B780F
S31520002470012B2BD1FB689B7D1946FA680B465B0026
S315200024800B449B001344223300221A70FB681B7DE9
S31520002490002B1BD0FB689B7D1C46FB689B7D194649
S315200024A0FA680B465B000B449B00134420331B78D1
S315200024B007F1140022468A4906F0C6FEFB68DB684F
S315200024C007F1140285491846FEF7F8FCBB681A7A0C
S315200024D0FB681A77FB681B7D002B47D0FB689B7D2A
S315200024E09C46FB689B7D1946FA680B465B000B44AD
S315200024F09B00134420331B789E46BB685B781C46A2
S31520002500BB685B781946FA680B465B000B449B0058
S31520002510134420331B781A46BB68DB781946BB6800
S315200025201B791D46BB685B791E46BB689B797B6021
S31520002530BB68DB793B60BB681B7A07F11400079305
S315200025403B6806937B680593049603950291019256
S31520002550009473466246634906F076FEFB68DB68A4
S3152000256007F114025D491846FEF7A8FCFB689B7D1F
S315200025701946FA680B465B000B449B001344203334
S315200025801B78012B40F0D481BB685B781946FA682A
S315200025900B465B000B449B00134420331B78002B17
S315200025A040F0C681BB68DA78FB689B7D9A4240F092
S315200025B0BF81BB681A7AFB681B7F9A4240F0B881BC
S315200025C0BB681A79FB6883F85B20BB685A79FB687D
S315200025D083F85920BB689A79FB6883F85A20BB6830
S315200025E0DA79FB681B691A61FB68012283F8582097
S315200025F0FB681B7D002B2BD0FB689B7D1C46FB6854
S315200026009B7D1946FA680B465B000B449B001344DE
S3152000261020331B781D46FB6893F85B301A46FB680F
S3152000262093F859301946FB6893F85A3007F114008D
S315200026300293019100922B4622462B4906F004FE76
S31520002640FB68DB6807F1140224491846FEF736FCBE
S31520002650FB681869FB6893F85B301A46234B53F8DE
S315200026602230FA6892F85A2013440533204A52F849
S3152000267023301A461F49FEF721FCFB681A690023FE
S3152000268000931D4B1E210020FEF77AFBFB6893F872
S3152000269059301A46194B93FBF2F3C7F89C30FB6866
S315200026A093F85B301A46164B53F822301A46D7F861
S315200026B09C3003FB02F3A3F54343503B114AA2FB94
S315200026C00323DB081846FB681A69002300930E4B88
S315200026D01E21FEF755FB2BE140A20020F715002016
S315200026E058A20020FCA2002074A30020D49E002023
S315200026F0D89F00204D8C0020FD8B002080C3C9016F
S31520002700549F0020CDCCCCCC318C0020BB681B78CC
S31520002710032B40F00D81BB681A7AFB681B7F9A4217
S315200027207DD9FB689B7D1946FA680B465B000B44F6
S315200027309B00134420331B78002B33D1FB689B7DF1
S315200027401946FA680B465B000B449B001344203362
S3152000275001221A70FB681B7D002B1CD0FB689B7D19
S315200027601C46FB689B7D1946FA680B465B000B44AA
S315200027709B00134420331B7807F1140022466E4930
S3152000278006F062FDFB68DB6807F114026B49184608
S31520002790FEF794FB06E0FB68DB68694A6749184642
S315200027A0FEF78CFBFB689B7D1946FA680B465B009F
S315200027B00B449B00134422331B78012B2BD1FB683F
S315200027C09B7D1946FA680B465B000B449B0013441D
S315200027D0223300221A70FB681B7D002B1BD0FB685E
S315200027E09B7D1C46FB689B7D1946FA680B465B0061
S315200027F00B449B00134420331B7807F11400224618
S31520002800504906F021FDFB68DB6807F114024B49AD
S315200028101846FEF753FBBB681A7AFB681A77FB68E3
S315200028201B7D002B47D0FB689B7D9C46FB689B7DD0
S315200028301946FA680B465B000B449B001344203371
S315200028401B789E46BB685B781C46BB685B7819463E
S31520002850FA680B465B000B449B00134420331B781D
S315200028601A46BB68DB781946BB681B791D46BB68D0
S315200028705B791E46BB689B797B60BB68DB793B60D6
S31520002880BB681B7A07F1140007933B6806937B68A5
S31520002890059304960395029101920094734662462D
S315200028A0294906F0D1FCFB68DB6807F114022349AD
S315200028B01846FEF703FBFB689B7D1946FA680B4614
S315200028C05B000B449B00134420331B78012B2FD134
S315200028D0BB685B781946FA680B465B000B449B0085
S315200028E0134420331B78002B22D1BB681A7AFB684D
S315200028F01B7F9A421CD1BB68DA78FB6883F8592083
S31520002900BB681A79FB6883F85A20BB685A79FB683A
S315200029101B691A61BB689A79FB6883F85B20BB68E0
S31520002920DA79FB6883F8582002E000BF00E000BF98
S31520002930AC37BD46F0BD00BFD4A20020F71500205D
S3152000294040A2002058A20020A0A3002080B588B075
S3152000295002AF786039607B6893F85830002B48D1F5
S315200029607B689B7D19467A680B465B000B449B006F
S31520002970134420331B78002B3BD17B68012283F83C
S31520002980582003233B737B689B7D7B730623BB7395
S315200029907B6893F85930FB737B6893F85A303B7405
S315200029A07B681B691B69DBB27B747B6893F85B30A1
S315200029B0BB747B6893F85830FB747B681B7F3B7530
S315200029C000237B750023BB757B6893F85E30002B54
S315200029D007D17B689B6807F10C0208491846FEF769
S315200029E06DFA00230093064B7A6800210020FEF73B
S315200029F0C7F900BF1837BD4680BD00BFB70300200A
S31520002A009117002080B586B000AF786039607B686A
S31520002A109B7D19467A680B465B000B449B0013444A
S31520002A2020331B78002B33D17B68002283F8582073
S31520002A3003233B737B689B7D7B730623BB737B6879
S31520002A4093F85930FB737B6893F85A303B747B6854
S31520002A501B691B69DBB27B747B6893F85B30BB74A4
S31520002A607B6893F85830FB747B681B7F3B7500238B
S31520002A707B750023BB757B6893F85E30002B07D1EE
S31520002A807B689B6807F10C0203491846FEF716FA85
S31520002A9000BF1837BD4680BDB703002080B586B07D
S31520002AA000AF786039607B689B7D19467A680B4653
S31520002AB05B000B449B00134420331B78002B3BD137
S31520002AC07B68002283F85B207B68782283F8592074
S31520002AD07B68052283F85A2003233B737B689B7D02
S31520002AE07B730623BB737B6893F85930FB737B6833
S31520002AF093F85A303B747B681B691B69DBB27B7485
S31520002B007B6893F85B30BB747B6893F85830FB7412
S31520002B107B681B7F3B7500237B750023BB757B6819
S31520002B2093F85E30002B07D17B689B6807F10C0277
S31520002B3003491846FEF7C2F900BF1837BD4680BDC7
S31520002B40B703002080B586B000AF786039607B6817
S31520002B509B7D19467A680B465B000B449B00134409
S31520002B6020331B78002B3FD13B68002B02DA002351
S31520002B703B6004E03B680A2B01DD0A233B603B688F
S31520002B80DAB27B6883F85A2003233B737B689B7DEC
S31520002B907B730623BB737B6893F85930FB737B6882
S31520002BA093F85A303B747B681B691B69DBB27B74D4
S31520002BB07B6893F85B30BB747B6893F85830FB7462
S31520002BC07B681B7F3B7500237B750023BB757B6869
S31520002BD093F85E30002B07D17B689B6807F10C02C7
S31520002BE003491846FEF76AF900BF1837BD4680BD6F
S31520002BF0B703002080B586B000AF786039607B6867
S31520002C009B7D19467A680B465B000B449B00134458
S31520002C1020331B78002B3FD13B683B2B02DC3C2327
S31520002C203B6004E03B68F02B01DDF0233B603B6812
S31520002C30DAB27B6883F8592003233B737B689B7D3C
S31520002C407B730623BB737B6893F85930FB737B68D1
S31520002C5093F85A303B747B681B691B69DBB27B7423
S31520002C607B6893F85B30BB747B6893F85830FB74B1
S31520002C707B681B7F3B7500237B750023BB757B68B8
S31520002C8093F85E30002B07D17B689B6807F10C0216
S31520002C9003491846FEF712F900BF1837BD4680BD16
S31520002CA0B703002080B582B000AF786039607B68BA
S31520002CB01B693A6803491846FEF700F900BF083732
S31520002CC0BD4680BD698C002080B586B000AF786097
S31520002CD039607B689B7D19467A680B465B000B44FE
S31520002CE09B00134420331B78002B36D17B681B694D
S31520002CF000221C491846FEF7E1F803233B737B6844
S31520002D009B7D7B730623BB737B6893F85930FB73DB
S31520002D107B6893F85A303B747B681B691B69DBB26E
S31520002D207B747B6893F85B30BB747B6893F8583070
S31520002D30FB747B681B7F3B7500237B750023BB756B
S31520002D407B6893F85E30002B07D17B689B6807F180
S31520002D500C0205491846FEF7B1F800BF1837BD46E4
S31520002D6080BD00BF858C0020B703002080B586B0CB
S31520002D7000AF786039607B689B7D19467A680B4680
S31520002D805B000B449B00134420331B78002B36D169
S31520002D907B681B6900221C491846FEF78FF803231F
S31520002DA03B737B689B7D7B730623BB737B6893F8A1
S31520002DB05930FB737B6893F85A303B747B681B69E8
S31520002DC01B69DBB27B747B6893F85B30BB747B68D2
S31520002DD093F85830FB747B681B7F3B7500237B750B
S31520002DE00023BB757B6893F85E30002B07D17B6888
S31520002DF09B6807F10C0205491846FEF75FF800BFED
S31520002E001837BD4680BD00BFAD8C0020B70300201B
S31520002E10B0B59AB002AF786039607B689B7D194661
S31520002E207A680B465B000B449B00134420331B78C7
S31520002E30012B40F09B807B689B7D19467A680B4668
S31520002E405B000B449B00134422331B78002B40F07D
S31520002E508D807B689B7D19467A680B465B000B4408
S31520002E609B001344223301221A707B681B7D002BA2
S31520002E701BD07B689B7D1C467B689B7D19467A68A8
S31520002E800B465B000B449B00134420331B7807F151
S31520002E9008002246374906F0D7F97B68DB6807F138
S31520002EA0080235491846FEF709F80023FB655AE063
S31520002EB07968FA6D13465B0013449B000B4422335A
S31520002EC01B78002B4CD07B689B7D19467A680B4675
S31520002ED05B000B449B00134422331B78002B3FD00E
S31520002EE07B689B7D1A46FB6D934239DA7B689B7D16
S31520002EF019467A680B465B000B449B001344223329
S31520002F0000221A707B681B7D002B29D07B689B7D55
S31520002F101C467B689B7D19467A680B465B000B44F2
S31520002F209B00134420331B781D467968FA6D13469F
S31520002F305B0013449B000B4420331B7807F10800E9
S31520002F400193FB6D00932B4622460C4906F07CF933
S31520002F507B68DB6807F1080207491846FDF7AEFFD4
S31520002F60FB6D0133FB65FB6D032BA1DD00BF6037D5
S31520002F70BD46B0BD1CA40020F7150020C8A1002026
S31520002F8090B593B002AF786039607B689B7D194617
S31520002F907A680B465B000B449B00134420331B7856
S31520002FA0012B3ED17B689B7D19467A680B465B00D8
S31520002FB00B449B001344203300221A707B681B7F2E
S31520002FC00133DAB27B681A777B681B7D002B1BD016
S31520002FD07B689B7D1C467B689B7D19467A680B46E1
S31520002FE05B000B449B00134420331B7807F10C0035
S31520002FF022460E4906F028F97B68DB6807F10C02A9
S315200030000B491846FDF75AFF7B6893F85830002B7A
S3152000301007D000230093074B7A6800210020FDF794
S31520003020AFFE00BF4437BD4690BD00BF48A4002078
S31520003030F71500209117002080B584B002AF786084
S3152000304039607B6893F85C30012B04D17B680022C1
S3152000305083F85C200BE07B68012283F85C20002348
S315200030600093054B7A6800210020FDF789FE00BFFA
S315200030700837BD4680BD00BFC130002080B584B072
S3152000308002AF786039607B6893F85D30012B04D1FC
S315200030907B68002283F85D200BE07B68012283F8A1
S315200030A05D2000230093054B7A6800210020FDF760
S315200030B067FE00BF0837BD4680BD00BF2531002012
S315200030C080B58AB002AF786039607B6893F85C304F
S315200030D0002B1AD07B6893F859301A4607F10C0357
S315200030E00C49184606F0B0F87B68DB6807F10C023D
S315200030F009491846FDF7E2FE00230093074B7A683C
S3152000310000210748FDF73CFE00E000BF2037BD4602
S3152000311080BD00BF70A40020F7150020C13000201C
S3152000312020A1070080B584B002AF786039607B6843
S3152000313093F85D30002B1CD07B681B69DB69002B64
S3152000314007D07B68DB680D4A0D491846FDF7B6FEA9
S3152000315006E07B68DB680B4A09491846FDF7AEFE98
S3152000316000230093084B7A6800210848FDF708FEE3
S3152000317000E000BF0837BD4680BD00BF84A4002004
S31520003180F715002098A400202531002020A1070053
S3152000319080B483B000AF786039607B6893F85E3086
S315200031A0012B04D17B68002283F85E2003E07B6834
S315200031B0012283F85E2000BF0C37BD465DF8047BF4
S315200031C0704780B58AB002AF786039607B6801228B
S315200031D083F85E20FDF790FF0146154B83FB012304
S315200031E05A10CB17D21A13469B001344CA1A531DE2
S315200031F0FB6107F10803FA690E49184606F024F820
S315200032007B68DB6807F108020B491846FDF756FE76
S31520003210FB690A4A02FB03F000230093084B7A68F5
S315200032200021FDF7ADFD00BF2037BD4680BD00BFA4
S3152000323067666666B0A40020F7150020A086010008
S315200032404532002080B483B000AF786039607B6857
S31520003250002283F85E2000BF0C37BD465DF8047B54
S31520003260704790B591B000AF786039607B681B7D60
S31520003270002B73D07B689B7D1C467B689B7D194603
S315200032807A680B465B000B449B00134420331B7863
S3152000329007F108002246AA4905F0D6FF7B68DB68BD
S315200032A007F10802A7491846FDF708FE7B689A69C8
S315200032B007F10803A449184605F0C6FF7B68DB68BA
S315200032C007F108029F491846FDF7F8FD7B689B7DAC
S315200032D019467A680B465B000B449B001344223345
S315200032E01B78002B1AD07B689B7D19467A680B4683
S315200032F05B000B449B00134420331B781A4607F1CE
S3152000330008039249184605F09FFF7B68DB6807F1A2
S3152000331008028C491846FDF7D1FD0DE007F1080398
S315200033208B49184605F090FF7B68DB6807F1080299
S3152000333084491846FDF7C2FD7B681B7F1A4607F1B4
S3152000334008038449184605F07FFF7B68DB6807F190
S3152000335008027C491846FDF7B1FD06E07B68DB686C
S315200033607D4A78491846FDF7A9FD0023FB63CFE087
S315200033707968FA6B13465B0013449B000B44283391
S315200033801B78002B40F0B28007F10803FA6B7349D3
S31520003390184605F059FF7B68DB6807F10802694982
S315200033A01846FDF78BFD7968FA6B13465B001344CC
S315200033B09B000B4420331B78002B0ED107F108030A
S315200033C06749184605F040FF7B68DB6807F108026D
S315200033D05C491846FDF772FD0DE007F108036149C7
S315200033E0184605F031FF7B68DB6807F1080255496E
S315200033F01846FDF763FD7968FA6B13465B001344A4
S315200034009B000B4422331B78002B0ED007F10803B8
S315200034105549184605F018FF7B68DB6807F1080256
S3152000342048491846FDF74AFD0DE007F108034F49C4
S31520003430184605F009FF7B68DB6807F10802414959
S315200034401846FDF73BFD7968FA6B13465B0013447B
S315200034509B000B4421331B781A4607F10803444985
S31520003460184605F0F1FE7B68DB6807F1080235494E
S315200034701846FDF723FD7968FA6B13465B00134463
S315200034809B000B4424331A6807F108033949184670
S3152000349005F0DAFE7B68DB6807F108022949184641
S315200034A0FDF70CFD7B689B7D1A46FB6B93420ED184
S315200034B007F108033049184605F0C6FE7B68DB682D
S315200034C007F108021F491846FDF7F8FC1DE007F131
S315200034D008032A49184605F0B7FE7B68DB6807F122
S315200034E0080218491846FDF7E9FC0EE007F1080323
S315200034F0FA6B2349184605F0A7FE7B68DB6807F1BF
S31520003500080210491846FDF7D9FCFB6B0133FB6313
S31520003510FB6B032B7FF72CAF7B6893F85830002B7F
S3152000352032D007F108031749184605F08DFE7B684F
S31520003530DB6807F1080203491846FDF7BFFC31E0B6
S31520003540C0A40020F7150020E4A40020F8A4002041
S3152000355020A5002040A5002054A5002068A5002015
S3152000356078A5002084A5002090A50020A0A50020F5
S31520003570B4A50020C0A50020D0A50020E0A50020ED
S31520003580E4A5002000A6002007F108031C491846E0
S3152000359005F05AFE7B68DB6807F1080219491846D0
S315200035A0FDF78CFC7B6893F859301A467B6893F8B4
S315200035B05A30053B07F10800134905F045FE7B68A4
S315200035C0DB6807F108020F491846FDF777FC7B6890
S315200035D093F85B301A467B681B691B6907F1080064
S315200035E00A4905F031FE7B68DB6807F108020549C8
S315200035F01846FDF763FC00BF4437BD4690BD00BFAB
S3152000360014A60020F71500202CA6002040A6002096
S3152000361080B483B000AF786039607B681B7D012B56
S3152000362003D17B6800221A7502E07B6801221A7595
S3152000363000BF0C37BD465DF8047B704780B586B069
S3152000364000AF7860396007F10C031A46074908482D
S31520003650FDF734FC07F10C031A4606490648FDF728
S315200036602DFC00BF1837BD4680BD00BFED020020EF
S315200036704CAF0020411F0020E4AF002080B584B06D
S3152000368000AF786039603B687A2B0ED100229D49C5
S315200036909D48FDF713FC9D4B1A469D499D48FDF715
S315200036A00DFC7B6800229A60D0E13B68782B0ED116
S315200036B0002299499448FDF701FC984B1A469449F3
S315200036C09448FDF7FBFB7B6800229A60BEE13B68CD
S315200036D0632B0ED1002292498B48FDF7EFFB914BCD
S315200036E01A468B498B48FDF7E9FB7B6800229A60D6
S315200036F0ACE13B68762B0ED100228B498248FDF740
S31520003700DDFB8A4B1A4682498248FDF7D7FB7B6848
S3152000371000229A609AE13B68622B0ED100228449EE
S315200037207948FDF7CBFB834B1A4679497948FDF753
S31520003730C5FB7B6800229A6088E13B68722B13D117
S3152000374005227D497048FDF7B9FB78227B496E48F2
S31520003750FDF7B4FB7A4B1A466D496E48FDF7AEFB72
S315200037607B6800229A6071E13B68792B0ED1754BFC
S315200037701A4667496748FDF7A1FB0022724962484D
S31520003780FDF79CFB7B6800229A605FE13B68652B16
S315200037900ED16E4B1A465E495E48FDF78FFB00221E
S315200037A06B495948FDF78AFB7B6800229A604DE1F8
S315200037B03B68772B08D1002266495348FDF77EFBEC
S315200037C07B6800229A6041E13B68752B0ED1624BE3
S315200037D01A464F494F48FDF771FB00225F494A4878
S315200037E0FDF76CFB7B6800229A602FE13B686D2B0E
S315200037F024D17B681B6A002B0ED1002258494248EF
S31520003800FDF75CFB574B1A4641494248FDF756FBEC
S315200038107B6801221A620DE0012251493A48FDF7E0
S315200038204DFB514B1A463A493A48FDF747FB7B6810
S3152000383000221A627B6800229A6007E13B686F2BA0
S315200038400ED14A4B1A4632493248FDF737FB002241
S3152000385047492D48FDF732FB7B6800229A60F5E048
S315200038603B68702B0ED1434B1A4629492948FDF750
S3152000387025FB002240492448FDF720FB7B680022D7
S315200038809A60E3E03B68642B0ED13C4B1A462049F4
S315200038902048FDF713FB002239491B48FDF70EFB94
S315200038A07B6800229A60D1E03B682F2B15DD3B68B0
S315200038B0392B12DC7B689B683A68D1B27A6813444C
S315200038C00A461A737B689B685A1C7B689A603A681A
S315200038D02C491048FDF7F2FAB8E03B682D2B53D15E
S315200038E07B689B68002B4FD17B682D221A737B68DF
S315200038F09B685A1C7B689A603A6822490548FDF7FE
S31520003900DDFAA3E04D290020E4AF00205CA60020CC
S31520003910F71500202CAB0020052A002070A60020D9
S315200039209D2A002084A60020C92C002098A60020CD
S315200039306D2D0020ACA60020452B0020F52B002065
S31520003940C0A60020D8A6002039300020F0A60020EE
S31520003950112E0020633200200CA700207D3000208D
S31520003960A52C002024A7002030A700203CA700205B
S315200039709131002050A70020C33100205CA70020F1
S31520003980113600204D1600203B686B2B2AD17B6810
S315200039909B687A68134400221A737B680C33184696
S315200039A005F02EFCB860BB6813F1050F10DBBB6871
S315200039B0052B0DDCBB6805331A462D492D48FDF72E
S315200039C07DFA2D4B1A462D492D48FDF777FA05E04D
S315200039D02C4B1A4629492A48FDF770FA7B680022A3
S315200039E09A6033E03B68742B27D17B689B687A68A2
S315200039F0134400221A737B680C33184605F000FC2A
S31520003A00F860FB683B2B0EDDFB68F02B0BDCFA68BD
S31520003A101D491848FDF752FA1C4B1A4617491848F3
S31520003A20FDF74CFA05E01A4B1A4614491448FDF7DF
S31520003A3045FA7B6800229A6008E0164B1A460F4921
S31520003A400F48FDF73BFA7B6800229A607B689B68EB
S31520003A50132B08DD104B1A4608490948FDF72EFAA4
S31520003A607B6800229A6000BF1037BD4680BD00BF2C
S31520003A70452B0020E4AF00206CA70020F71500207E
S31520003A802CAB002078A70020F52B002098A700203B
S31520003A90A8A70020CCA70020E0A7002080B582B0F0
S31520003AA000AF7860396000223B493C48FDF706FAB2
S31520003AB000223B493B48FDF701FA00223A493B48A0
S31520003AC0FDF7FCF93A4B1A463A493648FDF7F6F91E
S31520003AD0394B1A4637493348FDF7F0F9374B1A4622
S31520003AE034493048FDF7EAF9354B1A4631492D4815
S31520003AF0FDF7E4F9334B1A462E492A48FDF7DEF93D
S31520003B00314B1A462B492748FDF7D8F92F4B1A4631
S31520003B1028492448FDF7D2F92D4B1A462549214834
S31520003B20FDF7CCF92B4B1A4622491E48FDF7C6F95C
S31520003B30294B1A461F491B48FDF7C0F9274B1A4641
S31520003B401C491848FDF7BAF9254B1A461949154854
S31520003B50FDF7B4F9234B1A4616491248FDF7AEF97C
S31520003B60214B1A4613490F48FDF7A8F91F4B1A4651
S31520003B7010490C48FDF7A2F91D4B1A460D49094874
S31520003B80FDF79CF91B4B1A460A490648FDF796F99C
S31520003B9000BF0837BD4680BDA50000204CAF0020E1
S31520003BA0511500202CAB00205D170020E4AF00202B
S31520003BB0F8A70020F715002010A8002020A8002034
S31520003BC030A8002040A8002050A8002060A800208F
S31520003BD070A8002088A80020A0A80020B8A800204F
S31520003BE0D0A80020DCA80020E8A8002000A90020FA
S31520003BF018A9002034A9002080B500AF002208496A
S31520003C000848FDF74FFB012207490848FDF74AFB04
S31520003C10002207490748FDF7ABFB0023184680BD65
S31520003C20831600202CAB0020650100204CAF00201D
S31520003C309D3A0020D8B0002080B400AF094B002266
S31520003C401A60084B00225A60064B00229A60054BE8
S31520003C500022DA60034B044A5A6100BFBD465DF874
S31520003C60047B7047003C0140FFFF7F0080B485B095
S31520003C7000AF78600023FB60344BFB607B689B7948
S31520003C80002B4FD0314B1A687B681B68DB432F49CA
S31520003C9013400B602D4B5A687B681B68DB432B490E
S31520003CA013404B607B681B791A46FB681344FB6004
S31520003CB0FB6819687B681A68FB680A431A60234BFD
S31520003CC09A687B681B68DB43204913408B601F4B37
S31520003CD0DA687B681B68DB431C491340CB607B6832
S31520003CE05B79102B0ED1194B9A687B681B68174994
S31520003CF013438B60154BDA687B681B6813491343A3
S31520003D00CB601DE0114BFB607B685B791A46FB6834
S31520003D101344FB60FB6819687B681A68FB680A43D2
S31520003D201A600DE07B681B791A46FB681344FB601A
S31520003D30FB6819687B681B68DA43FB680A401A60CF
S31520003D4000BF1437BD465DF8047B7047003C014038
S31520003D5080B483B000AF78607B6800221A607B68ED
S31520003D6000221A717B680C225A717B6800229A7194
S31520003D7000BF0C37BD465DF8047B704780B483B026
S31520003D8000AF7860054B1A6904497B6813430B61C1
S31520003D9000BF0C37BD465DF8047B7047003C0140F0
S31520003DA080B485B000AF78600023FB73084B5A6956
S31520003DB07B681340002B02D00123FB7301E0002314
S31520003DC0FB73FB7B18461437BD465DF8047B7047B2
S31520003DD0003C014080B483B000AF7860044A7B6821
S31520003DE0536100BF0C37BD465DF8047B704700BFAA
S31520003DF0003C014080B485B000AF78600023FB739F
S31520003E00084B5A697B681340002B02D00123FB73B1
S31520003E1001E00023FB73FB7B18461437BD465DF893
S31520003E20047B7047003C014080B483B000AF7860CB
S31520003E30044A7B68536100BF0C37BD465DF8047B9E
S31520003E40704700BF003C014080B582B000AF78606B
S31520003E507B680E4A93420AD101214FF0007002F08E
S31520003E60F5FE00214FF0007002F0F0FE09E001217E
S31520003E704FF0806002F0EAFE00214FF0806002F0F1
S31520003E80E5FE00BF0837BD4680BD00BF0064004088
S31520003E9080B485B000AF786039600023FB730023BF
S31520003EA0BB607B681B6823F002027B681A607B6814
S31520003EB01B6843F001027B681A6002E0BB6801338D
S31520003EC0BB607B685B6803F00103012B04D0BB68F1
S31520003ED04FF6FF729342F1D17B685B6803F00103D2
S31520003EE0012B02D00023FB739CE03B689B79012BBE
S31520003EF006D17B681B6843F080027B681A6005E068
S31520003F007B681B6823F080027B681A603B68DB793C
S31520003F10012B06D17B681B6843F040027B681A6040
S31520003F2005E07B681B6823F040027B681A603B68CB
S31520003F301B7A012B06D17B681B6843F020027B6825
S31520003F401A6005E07B681B6823F020027B681A60F4
S31520003F503B685B7A012B06D17B681B6843F0100215
S31520003F607B681A6005E07B681B6823F010027B687B
S31520003F701A603B689B7A012B06D17B681B6843F04D
S31520003F8008027B681A6005E07B681B6823F008023C
S31520003F907B681A603B68DB7A012B06D17B681B683D
S31520003FA043F004027B681A6005E07B681B6823F0F7
S31520003FB004027B681A603B689B789A073B68DB782B
S31520003FC01B061A433B681B791B041A433B685B7923
S31520003FD01B051A433B681B88013B1A437B68DA6141
S31520003FE07B681B6823F001027B681A600023BB6094
S31520003FF002E0BB680133BB607B685B6803F00103AA
S31520004000012B04D1BB684FF6FF729342F1D17B6836
S315200040105B6803F00103012B02D10023FB7301E04F
S315200040200123FB73FB7B18461437BD465DF8047BE2
S31520004030704790B484B000AF78600023FB607B6843
S315200040409B7A1A4601239340FB605A4BD3F80032E1
S31520004050584A43F00103C2F80032564BD3F81C22CB
S31520004060FB68DB4353491340C1F81C327B681B7B3A
S31520004070002B29D14F4BD3F80C22FB68DB434D494B
S315200040801340C1F80C327B68DB881B047A6852889F
S31520004090144648497A68927A104643EA040200F1A7
S315200040A0480341F833207B689B881B047A68128872
S315200040B0144640497A68927A104643EA040200F18F
S315200040C04803DB000B445A607B681B7B012B28D1FD
S315200040D0384BD3F80C223749FB681343C1F80C320E
S315200040E07B681B881B047A685288144631497A6893
S315200040F0927A104643EA040200F1480341F833203D
S315200041007B689B881B047A68D288144629497A687A
S31520004110927A104643EA040200F14803DB000B447E
S315200041205A607B68DB7A002B09D1224BD3F8042214
S31520004130FB68DB431F491340C1F8043207E01D4BDF
S31520004140D3F804221B49FB681343C1F804327B6869
S315200041501B89002B08D1174BD3F81422FB68DB43AD
S3152000416014491340C1F814327B681B89012B07D1EF
S31520004170104BD3F814220F49FB681343C1F81432AD
S315200041807B685B7B012B07D10A4BD3F81C2209499C
S31520004190FB681343C1F81C32064BD3F80032054A9C
S315200041A023F00103C2F8003200BF1037BD4690BC91
S315200041B0704700BF0064004080B483B000AF7860D1
S315200041C07B6800229A717B680022DA717B68002264
S315200041D01A727B6800225A727B6800229A727B6868
S315200041E00022DA727B6800229A707B680022DA70DD
S315200041F07B6803221A717B6802225A717B6801222E
S315200042001A8000BF0C37BD465DF8047B704780B42A
S3152000421083B000AF0346FB71144BD3F80032134A28
S3152000422043F00103C2F80032104BD3F800320F4A94
S3152000423023F47C5323F00E03C2F800320B4BD3F841
S315200042400022FB791B0209491343C1F80032074BB0
S31520004250D3F80032054A23F00103C2F8003200BF2A
S315200042600C37BD465DF8047B704700BF00640040F4
S3152000427080B483B000AF78600B46FB70FB78002BD0
S3152000428006D07B681B6843F480327B681A6005E0A1
S315200042907B681B6823F480327B681A6000BF0C376A
S315200042A0BD465DF8047B704780B483B000AF78606C
S315200042B00B46FB70FB78002B1ED07B681B6843F0F7
S315200042C080027B681A607B68D3F8843143F480725D
S315200042D07B68C3F884217B68D3F8943143F48072D9
S315200042E07B68C3F894217B68D3F8A43143F48072A9
S315200042F07B68C3F8A4211DE07B681B6823F080023D
S315200043007B681A607B68D3F8843123F480727B68DB
S31520004310C3F884217B68D3F8943123F480727B68B8
S31520004320C3F894217B68D3F8A43123F480727B6888
S31520004330C3F8A42100BF0C37BD465DF8047B704747
S3152000434080B485B000AF786039600023FB737B684A
S315200043509B6803F08063B3F1806F02D10023FB7367
S3152000436015E07B689B6803F00063B3F1006F02D110
S315200043700123FB730BE07B689B6803F08053B3F14A
S31520004380805F02D10223FB7301E00423FB73FB7BD6
S31520004390042B00F09F80FB7B7A6818331B011344A3
S315200043A01A68FB7B02F00102796818331B010B4463
S315200043B01A603B681B7A002B13D1FB7B7A68183373
S315200043C01B01134419683B681B685B053A68527ADF
S315200043D01A43FB7B0A43796818331B010B441A6086
S315200043E015E0FB7B7A6818331B01134419683B6878
S315200043F05B68DB003A68127A13433A68527A1A43AA
S31520004400FB7B0A43796818331B010B441A603B680F
S315200044109B7A03F00F03DAB23B689A72FB7B7A68C9
S3152000442018331B01134404331A68FB7B22F00F0256
S31520004430796818331B010B4404331A60FB7B7A68B6
S3152000444018331B01134404331A683B689B7A1946B8
S31520004450FB7B0A43796818331B010B4404331A602B
S315200044603B689B7B1A063B685B7B1B041A433B68B5
S315200044701B7B1B021A433B68DB7A1946FB7B0A43EC
S3152000448079681B010B4403F5C4731A603B689B7C57
S315200044901A063B685B7C1B041A433B681B7C1B0289
S315200044A01A433B68DB7B1946FB7B0A4379681B0171
S315200044B00B4403F5C6731A60FB7B7A6818331B011D
S315200044C013441A68FB7B42F00102796818331B01FA
S315200044D00B441A60FB7B18461437BD465DF8047BF7
S315200044E0704780B485B000AF78600B46FB70002320
S315200044F0FB60FB78022B12D0022B16DC002B02D09D
S31520004500012B06D011E07B689A68314B1340FB6083
S315200045100EE07B689A682F4B1340FB6008E07B68AF
S315200045209A682D4B1340FB6002E00023FB6000BF1E
S31520004530FB68294A93423DD0FB68274A93423CD8E0
S31520004540FB68264A93422CD0FB68244A934234D8EF
S31520004550FB68204A93422AD0FB681E4A93422CD8F5
S31520004560FB681F4A934219D0FB681D4A934224D800
S31520004570FB68174A934217D0FB68154A93421CD80A
S31520004580FB68002B04D0FB68164A934203D014E044
S315200045900223FB6014E00023FB6011E00023FB6094
S315200045A00EE00023FB600BE00123FB6008E0012303
S315200045B0FB6005E00123FB6002E00023FB6000BFF7
S315200045C0FB68DBB218461437BD465DF8047B70479E
S315200045D0030000040003000800000310000001107F
S315200045E0000100080100000480B483B000AF7860A9
S315200045F00B46FB70FB78022B14D0022B19DC002B08
S3152000460002D0012B07D014E07B689B6843F0800220
S315200046107B689A600EE07B689B6843F400427B6867
S315200046209A6007E07B689B6843F400027B689A6087
S3152000463000E000BF00BF0C37BD465DF8047B704725
S3152000464080B485B000AFF8600B467A60FB72FB7AC7
S31520004650FA681B331B0113441B68DBB203F0040307
S31520004660DAB27B681A727B681B7A002B0BD1FB7A35
S31520004670FA681B331B0113441B685B0DC3F30A0244
S315200046807B681A600AE0FB7AFA681B331B01134425
S315200046901B68DB0823F060427B685A60FB7AFA6865
S315200046A01B331B0113441B68DBB203F00203DAB28F
S315200046B07B685A72FB7AFA681B331B011344043356
S315200046C01B68DBB203F00F03DAB27B689A72FB7ABF
S315200046D0FA681B331B01134404331B681B0ADAB226
S315200046E07B68DA74FB7AFA681B01134403F5DC73E2
S315200046F01B68DAB27B68DA72FB7AFA681B0113440C
S3152000470003F5DC731B681B0ADAB27B681A73FB7A23
S31520004710FA681B01134403F5DC731B681B0CDAB221
S315200047207B685A73FB7AFA681B01134403F5DC7322
S315200047301B681B0EDAB27B689A73FB7AFA681B0138
S31520004740134403F5DE731B68DAB27B68DA73FB7AEF
S31520004750FA681B01134403F5DE731B681B0ADAB2E1
S315200047607B681A74FB7AFA681B01134403F5DE731F
S315200047701B681B0CDAB27B685A74FB7AFA681B0139
S31520004780134403F5DE731B681B0EDAB27B689A743A
S31520004790FB7A002B06D1FB68DB6843F02002FB681E
S315200047A0DA6005E0FB681B6943F02002FB681A61AA
S315200047B000BF1437BD465DF8047B704780B483B0D4
S315200047C000AF78600B46FB70FB78002B06D17B6828
S315200047D0DB6843F020027B68DA6005E07B681B69B2
S315200047E043F020027B681A6100BF0C37BD465DF896
S315200047F0047B704780B485B000AF78600B46FB70B1
S315200048000023FB73FB78002B06D17B68DB68DBB2C9
S3152000481003F00303FB730BE0FB78012B06D17B68C7
S315200048201B69DBB203F00303FB7301E00023FB7378
S31520004830FB7B18461437BD465DF8047B704780B471
S3152000484085B000AF78600B46FB700023FB734FF6F4
S31520004850FF73BB60FB78002B20D17B681B6823F09D
S31520004860030343F001027B681A6002E0BB68013B48
S31520004870BB607B685B6803F00303012B02D0BB6837
S31520004880002BF3D17B685B6803F00303012B02D076
S315200048900023FB734AE00123FB7347E0FB78012BDF
S315200048A01ED17B681B6823F003027B681A6002E036
S315200048B0BB68013BBB607B685B6803F00303002B8E
S315200048C002D0BB68002BF3D17B685B6803F003033F
S315200048D0002B02D00023FB7328E00123FB7325E085
S315200048E0FB78022B20D17B681B6823F0030343F05F
S315200048F002027B681A6002E0BB68013BBB607B68F2
S315200049005B6803F00303022B02D0BB68002BF3D1B4
S315200049107B685B6803F00303022B02D00023FB7342
S3152000492004E00123FB7301E00023FB73FB7B1846A5
S315200049301437BD465DF8047B704780B485B000AF60
S3152000494078600023FB737B681B6823F0030343F026
S3152000495002027B681A607B685B6803F00303022B04
S3152000496001D10123FB73FB7B18461437BD465DF846
S31520004970047B704780B485B000AF78604FF6FF7334
S31520004980FB600023FB727B681B6823F002027B68B6
S315200049901A6002E0FB68013BFB607B685B6803F002
S315200049A00203022B02D1FB68002BF3D17B685B68E4
S315200049B003F00203022B01D00123FB72FB7A184677
S315200049C01437BD465DF8047B704780B485B000AFD0
S315200049D078600023FB737B689B69DBB203F070036E
S315200049E0FB73FB7B18461437BD465DF8047B704786
S315200049F080B485B000AF78600023FB737B689B6929
S31520004A001B0EFB73FB7B18461437BD465DF8047BF3
S31520004A10704780B485B000AF78600023FB737B6855
S31520004A209B691B0CFB73FB7B18461437BD465DF850
S31520004A30047B704780B485B000AFF860B960134638
S31520004A40FB71FB79002B06D0FB685A69BB681A43B9
S31520004A50FB685A6106E0FB685A69BB68DB431A406B
S31520004A60FB685A6100BF1437BD465DF8047B70476A
S31520004A7080B485B000AF786039600023FB733B6853
S31520004A8003F47003002B0DD07B689A693B681340B2
S31520004A90C3F31303002B02D00123FB7348E000234A
S31520004AA0FB7345E03B6803F08073002B0DD07B68D9
S31520004AB05A683B681340C3F31303002B02D001232B
S31520004AC0FB7335E00023FB7332E03B6803F00063A1
S31520004AD0002B0DD07B689A683B681340C3F3130301
S31520004AE0002B02D00123FB7322E00023FB731FE07F
S31520004AF03B6803F00073002B0DD07B68DA683B68B7
S31520004B001340C3F31303002B02D00123FB730FE0E2
S31520004B100023FB730CE07B681A693B681340C3F3E0
S31520004B201303002B02D00123FB7301E00023FB7348
S31520004B30FB7B18461437BD465DF8047B704780B46E
S31520004B4085B000AF786039600023FB603B68174A68
S31520004B50934203D17B6800229A6121E03B68C3F32C
S31520004B601303FB603B6803F00073002B03D07B68C4
S31520004B70FA68DA6014E03B6803F08063002B03D008
S31520004B807B68FA681A610BE03B6803F00063002B30
S31520004B9003D07B68FA689A6002E07B68FA685A60FC
S31520004BA000BF1437BD465DF8047B70477000F030B7
S31520004BB080B584B000AF786039600023FB737B68D2
S31520004BC05A693B681340002B00F01B813B68B3F504
S31520004BD0003F00F0DD803B68B3F5003F00F20E8118
S31520004BE03B68B3F5803F00F0CA803B68B3F5803F51
S31520004BF000F204813B68B3F5004F00F0F6803B6875
S31520004C00B3F5004F00F2FA803B68B3F5006F00F071
S31520004C10E3803B68B3F5006F00F2F0803B68B3F5A4
S31520004C20806F00F0D0803B68B3F5806F00F2E6809D
S31520004C303B68B3F5007F00F0BD803B68B3F5007F8D
S31520004C4000F2DC803B68B3F5807F00F0AA803B68E9
S31520004C50B3F5807F00F2D2803B68202B4CD83B688E
S31520004C60002B00F0CB803B68013B1F2B00F2C68057
S31520004C7001A252F823F000BF014D0020134D002061
S31520004C80FD4D0020254D0020FD4D0020FD4D00202E
S31520004C90FD4D0020374D0020FD4D0020FD4D00200C
S31520004CA0FD4D0020FD4D0020FD4D0020FD4D002036
S31520004CB0FD4D0020494D0020FD4D0020FD4D0020DA
S31520004CC0FD4D0020FD4D0020FD4D0020FD4D002016
S31520004CD0FD4D0020FD4D0020FD4D0020FD4D002006
S31520004CE0FD4D0020FD4D0020FD4D0020FD4D0020F6
S31520004CF0FD4D00205B4D00203B68402B36D07DE0EB
S31520004D007B689B684249184600F060F90346FB73AE
S31520004D1079E07B68DB680321184600F057F90346E3
S31520004D20FB7370E07B68DB680821184600F04EF9BB
S31520004D300346FB7367E07B68DB681021184600F0AA
S31520004D4045F90346FB735EE07B681B690321184621
S31520004D5000F03CF90346FB7355E07B681B6908218C
S31520004D60184600F033F90346FB734CE07B681B6959
S31520004D701021184600F02AF90346FB7343E07B68AE
S31520004D805B680821184600F021F90346FB733AE0D8
S31520004D907B685B681021184600F018F90346FB7300
S31520004DA031E07B689B690121184600F00FF9034624
S31520004DB0FB7328E07B689B690221184600F006F900
S31520004DC00346FB731FE07B689B690421184600F0AD
S31520004DD0FDF80346FB7316E07B689B697021184635
S31520004DE000F0F4F80346FB730DE07B685B68042152
S31520004DF0184600F0EBF80346FB7304E00023FB7330
S31520004E0001E00023FB73FB7B18461037BD4680BDAF
S31520004E100101010080B483B000AF786039603B683F
S31520004E20B3F5003F00F0AA803B68B3F5003F00F2DF
S31520004E30C3803B68B3F5803F00F09C803B68B3F5A8
S31520004E40803F00F2B9803B68B3F5004F00F0AD809B
S31520004E503B68B3F5004F00F2AF803B68B3F5006FB7
S31520004E6000F09C803B68B3F5006F00F2A5803B689C
S31520004E70B3F5806F00F08E803B68B3F5806F00F24B
S31520004E809B803B68B3F5007F00F080803B68B3F5DC
S31520004E90007F00F291803B68B3F5807F72D03B683B
S31520004EA0B3F5807F00F288803B68202B4AD83B6888
S31520004EB0002B00F081803B68013B1F2B7CD801A290
S31520004EC052F823F04D4F0020B94F0020B94F002053
S31520004ED0554F0020B94F0020B94F0020B94F002070
S31520004EE05D4F0020B94F0020B94F0020B94F002058
S31520004EF0B94F0020B94F0020B94F0020B94F0020EC
S31520004F00B94F0020B94F0020B94F0020B94F0020DB
S31520004F10B94F0020B94F0020B94F0020B94F0020CB
S31520004F20B94F0020B94F0020B94F0020B94F0020BB
S31520004F30B94F0020B94F0020B94F0020B94F0020AB
S31520004F40654F00203B68402B10D035E07B681E4A19
S31520004F509A6032E07B680822DA602EE07B681022B5
S31520004F60DA602AE07B6808221A6126E07B68102234
S31520004F701A6122E07B6808225A601EE07B681022B4
S31520004F805A601AE07B6804225A6016E07B68042285
S31520004F905A6012E07B6804225A600EE07B68002289
S31520004FA09A617B6804225A6007E07B6800229A6136
S31520004FB07B6804225A6000E000BF00BF0C37BD4664
S31520004FC05DF8047B704700BF0101010080B485B005
S31520004FD000AF786039600023FB737A683B68134022
S31520004FE0002B02D00123FB7301E00023FB73FB7B24
S31520004FF018461437BD465DF8047B704780B500AF70
S3152000500001214FF0005001F021FE00214FF0005009
S3152000501001F01CFE00BF80BD80B485B000AF786073
S3152000502039600023FB600023BB60144B1B68FB60C8
S3152000503040F6FE727B6802FA03F3DB43FA681340FC
S31520005040FB603B681A683B685B681A433B689B6851
S315200050501A433B68DB681343BB60BA687B6802FA75
S3152000506003F3FA681343FB60044AFB68136000BF2E
S315200050701437BD465DF8047B704700BF00740040BE
S3152000508080B483B000AF78607B6800221A607B68AA
S3152000509000225A607B6800229A607B680022DA60D0
S315200050A000BF0C37BD465DF8047B704780B483B0E3
S315200050B000AF78600B46FB70FB78002B09D00D4BB8
S315200050C01A6801217B6801FA03F30A4913430B602E
S315200050D009E0084B1A6801217B6801FA03F3DB43D8
S315200050E0044913400B6000BF0C37BD465DF8047BB6
S315200050F0704700BF0074004080B483B000AF786072
S315200051000B46FB70FB78002B0AD00E4B5A687B6847
S315200051101B09012101FA03F30A4913434B600AE0F4
S31520005120084B5A687B681B09012101FA03F3DB430C
S31520005130044913404B6000BF0C37BD465DF8047B25
S31520005140704700BF0074004080B483B000AF0346B0
S31520005150FB71FB79002B06D0094B5B68084A43F0AC
S315200051600303536005E0064B5B68054A23F00303FF
S31520005170536000BF0C37BD465DF8047B704700BF07
S315200051800074004080B485B000AFF860B960134663
S31520005190FB71FB79002B09D00C4B1A68B968FB68A8
S315200051A001FA03F3094913430B6009E0074B1A6818
S315200051B0B968FB6801FA03F3DB43044913400B602B
S315200051C000BF1437BD465DF8047B7047007400406D
S315200051D080B485B000AF78600B467B800023FB60EF
S315200051E0084BFB60FA687B6813440833FB60FB6856
S315200051F01A467B88136000BF1437BD465DF8047BD2
S31520005200704700BF0074004080B485B000AF78605E
S315200052100B467B800023FB60084BFB60FA687B68AB
S3152000522013441433FB60FB681A467B88136000BF67
S315200052301437BD465DF8047B704700BF00740040FC
S3152000524080B485B000AF78600B467B8013463B80E8
S315200052500023FB600023BB607B68082B05D17B887D
S315200052601A023B881343FB6004E07B881A043B88C0
S315200052701343FB60074BBB607A68BB68134420333B
S31520005280BB60BB68FA681A6000BF1437BD465DF87C
S31520005290047B70470074004080B485B000AF78600E
S315200052A00023FB60084BFB607B689A08FB6813446D
S315200052B02C33FB60FB681B689BB218461437BD462F
S315200052C05DF8047B704700BF0074004080B483B053
S315200052D000AF78600B46FB70FB78002B0AD00E4B94
S315200052E01A684FF480517B6801FA03F30A49134385
S315200052F00B600AE0084B1A684FF480517B6801FA6C
S3152000530003F3DB43044913400B6000BF0C37BD4653
S315200053105DF8047B704700BF0074004080B485B000
S3152000532000AFF860B9601346FB71FB79002B09D0FA
S315200053300C4B1A68B968FB6801FA03F30949134351
S315200053400B6009E0074B1A68B968FB6801FA03F39A
S31520005350DB43044913400B6000BF1437BD465DF89C
S31520005360047B70470074004080B485B000AF78603D
S3152000537039600023FB730A4B5A6B39687B6801FA44
S3152000538003F31340002B02D00123FB7301E000231B
S31520005390FB73FB7B18461437BD465DF8047B7047CC
S315200053A00074004080B483B000AF7860396006494D
S315200053B03A687B6802FA03F34B6300BF0C37BD469D
S315200053C05DF8047B704700BF0074004080B485B050
S315200053D000AF786039600023FB730023BB60104B5D
S315200053E01A6839687B6801FA03F31340BB600C4BDB
S315200053F05A6B39687B6801FA03F31340002B05D0FA
S31520005400BB68002B02D00123FB7301E00023FB7352
S31520005410FB7B18461437BD465DF8047B704700BFFA
S315200054200074004080B483B000AF786039600649CC
S315200054303A687B6802FA03F34B6300BF0C37BD461C
S315200054405DF8047B704700BF0074004080B582B0D1
S3152000545000AF78607B684B4A934208D10121012036
S3152000546001F094FB0021012001F090FB86E07B688F
S31520005470454A934208D10121022001F087FB0021F1
S31520005480022001F083FB79E07B68404A934208D1F1
S315200054900121042001F07AFB0021042001F076FB93
S315200054A06CE07B683A4A934208D10121082001F03A
S315200054B06DFB0021082001F069FB5FE07B68354A1F
S315200054C0934208D10121102001F060FB0021102019
S315200054D001F05CFB52E07B682F4A934208D1012100
S315200054E0202001F053FB0021202001F04FFB45E056
S315200054F07B682A4A934208D10121402001F046FBCD
